{
  "contractName": "DVideo",
  "abi": [
    {
      "constant": true,
      "inputs": [],
      "name": "name",
      "outputs": [
        {
          "name": "",
          "type": "string"
        }
      ],
      "payable": false,
      "stateMutability": "view",
      "type": "function",
      "signature": "0x06fdde03"
    },
    {
      "constant": true,
      "inputs": [],
      "name": "videoCount",
      "outputs": [
        {
          "name": "",
          "type": "uint256"
        }
      ],
      "payable": false,
      "stateMutability": "view",
      "type": "function",
      "signature": "0xc61b5f4c"
    },
    {
      "inputs": [],
      "payable": false,
      "stateMutability": "nonpayable",
      "type": "constructor",
      "signature": "constructor"
    }
  ],
  "bytecode": "0x6080604052600080556040805190810160405280600681526020017f44566964656f000000000000000000000000000000000000000000000000000081525060019080519060200190610053929190610066565b5034801561006057600080fd5b5061010b565b828054600181600116156101000203166002900490600052602060002090601f016020900481019282601f106100a757805160ff19168380011785556100d5565b828001600101855582156100d5579182015b828111156100d45782518255916020019190600101906100b9565b5b5090506100e291906100e6565b5090565b61010891905b808211156101045760008160009055506001016100ec565b5090565b90565b6101dc8061011a6000396000f3fe60806040526004361061004c576000357c0100000000000000000000000000000000000000000000000000000000900463ffffffff16806306fdde0314610051578063c61b5f4c146100e1575b600080fd5b34801561005d57600080fd5b5061006661010c565b6040518080602001828103825283818151815260200191508051906020019080838360005b838110156100a657808201518184015260208101905061008b565b50505050905090810190601f1680156100d35780820380516001836020036101000a031916815260200191505b509250505060405180910390f35b3480156100ed57600080fd5b506100f66101aa565b6040518082815260200191505060405180910390f35b60018054600181600116156101000203166002900480601f0160208091040260200160405190810160405280929190818152602001828054600181600116156101000203166002900480156101a25780601f10610177576101008083540402835291602001916101a2565b820191906000526020600020905b81548152906001019060200180831161018557829003601f168201915b505050505081565b6000548156fea165627a7a723058200c3c079b0265b83bf8b7e74e52a680d90d794c4d7000ba67ef23f4b4e754ef400029",
  "source": "pragma solidity ^0.5.0;\n\ncontract DVideo {\n  uint public videoCount = 0;\n  string public name = \"DVideo\";\n  //Create id=>struct mapping\n\n  //Create Struct\n\n\n  //Create Event\n\n\n  constructor() public {\n  }\n\n  //function uploadVideo(string memory _videoHash, string memory _title) public {\n    // Make sure the video hash exists\n\n    // Make sure video title exists\n\n    // Make sure uploader address exists\n\n\n    // Increment video id\n\n    // Add video to the contract\n\n    // Trigger an event\n\n  //}\n}\n",
  "sourcePath": "G:/github-workspace/Etherum-Youtube-Clone/src/contracts/DVideo.sol",
  "compiler": {
    "name": "solc",
    "version": "0.5.0+commit.1d4f565a.Emscripten.clang"
  },
  "schemaVersion": "3.0.1",
  "updatedAt": "2020-12-27T13:33:42.512Z",
  "devdoc": {
    "methods": {}
  },
  "userdoc": {
    "methods": {}
  }
}